{
  "_format": "hh-sol-artifact-1",
  "contractName": "BudgetManager",
  "sourceName": "contracts/BudgetAllocation.sol",
  "abi": [
    {
      "anonymous": false,
      "inputs": [
        {
          "indexed": true,
          "internalType": "address",
          "name": "user",
          "type": "address"
        },
        {
          "indexed": false,
          "internalType": "string",
          "name": "category",
          "type": "string"
        },
        {
          "indexed": false,
          "internalType": "string",
          "name": "subDivision",
          "type": "string"
        },
        {
          "indexed": false,
          "internalType": "uint256",
          "name": "amount",
          "type": "uint256"
        },
        {
          "indexed": false,
          "internalType": "uint256",
          "name": "timestamp",
          "type": "uint256"
        }
      ],
      "name": "TransactionMade",
      "type": "event"
    },
    {
      "inputs": [
        {
          "internalType": "string",
          "name": "category",
          "type": "string"
        },
        {
          "internalType": "string",
          "name": "subName",
          "type": "string"
        },
        {
          "internalType": "uint256",
          "name": "amount",
          "type": "uint256"
        }
      ],
      "name": "addSubDivision",
      "outputs": [],
      "stateMutability": "nonpayable",
      "type": "function"
    },
    {
      "inputs": [
        {
          "internalType": "address",
          "name": "user",
          "type": "address"
        }
      ],
      "name": "getBudgetSummary",
      "outputs": [
        {
          "internalType": "uint256",
          "name": "income",
          "type": "uint256"
        },
        {
          "internalType": "uint256",
          "name": "dailyLimit",
          "type": "uint256"
        },
        {
          "internalType": "uint256",
          "name": "needs",
          "type": "uint256"
        },
        {
          "internalType": "uint256",
          "name": "wants",
          "type": "uint256"
        },
        {
          "internalType": "uint256",
          "name": "savings",
          "type": "uint256"
        }
      ],
      "stateMutability": "view",
      "type": "function"
    },
    {
      "inputs": [
        {
          "internalType": "string",
          "name": "category",
          "type": "string"
        }
      ],
      "name": "getSubDivisions",
      "outputs": [
        {
          "internalType": "string[]",
          "name": "names",
          "type": "string[]"
        },
        {
          "internalType": "uint256[]",
          "name": "amounts",
          "type": "uint256[]"
        },
        {
          "internalType": "uint256[]",
          "name": "percentages",
          "type": "uint256[]"
        },
        {
          "internalType": "uint256[]",
          "name": "spent",
          "type": "uint256[]"
        }
      ],
      "stateMutability": "view",
      "type": "function"
    },
    {
      "inputs": [
        {
          "internalType": "uint256",
          "name": "income",
          "type": "uint256"
        }
      ],
      "name": "setInitialBudget",
      "outputs": [],
      "stateMutability": "nonpayable",
      "type": "function"
    },
    {
      "inputs": [
        {
          "internalType": "string",
          "name": "category",
          "type": "string"
        },
        {
          "internalType": "uint256",
          "name": "amount",
          "type": "uint256"
        }
      ],
      "name": "spendFromCategory",
      "outputs": [],
      "stateMutability": "nonpayable",
      "type": "function"
    },
    {
      "inputs": [
        {
          "internalType": "uint256",
          "name": "amount",
          "type": "uint256"
        }
      ],
      "name": "spendFromGeneral",
      "outputs": [],
      "stateMutability": "nonpayable",
      "type": "function"
    },
    {
      "inputs": [
        {
          "internalType": "string",
          "name": "category",
          "type": "string"
        },
        {
          "internalType": "string",
          "name": "subName",
          "type": "string"
        },
        {
          "internalType": "uint256",
          "name": "amount",
          "type": "uint256"
        }
      ],
      "name": "spendFromSubDivision",
      "outputs": [],
      "stateMutability": "nonpayable",
      "type": "function"
    },
    {
      "inputs": [
        {
          "internalType": "bool",
          "name": "state",
          "type": "bool"
        }
      ],
      "name": "toggleStrictMode",
      "outputs": [],
      "stateMutability": "nonpayable",
      "type": "function"
    },
    {
      "inputs": [
        {
          "internalType": "address",
          "name": "",
          "type": "address"
        }
      ],
      "name": "userBudgets",
      "outputs": [
        {
          "internalType": "uint256",
          "name": "totalIncome",
          "type": "uint256"
        },
        {
          "internalType": "uint256",
          "name": "dailyLimit",
          "type": "uint256"
        },
        {
          "internalType": "uint256",
          "name": "dailySpent",
          "type": "uint256"
        },
        {
          "internalType": "uint256",
          "name": "lastSpendDate",
          "type": "uint256"
        },
        {
          "internalType": "bool",
          "name": "strictMode",
          "type": "bool"
        }
      ],
      "stateMutability": "view",
      "type": "function"
    }
  ],
  "bytecode": "0x608060405234801561001057600080fd5b50612562806100206000396000f3fe608060405234801561001057600080fd5b50600436106100935760003560e01c806370f2e4a91161006657806370f2e4a9146101205780637fa54d6e1461013c578063a4a50d2914610170578063b6bb6f09146101a3578063fdfaf8b9146101bf57610093565b8063052bc2451461009857806335186088146100b457806338b54df8146100d0578063608937a6146100ec575b600080fd5b6100b260048036038101906100ad919061133c565b6101db565b005b6100ce60048036038101906100c991906113a1565b610590565b005b6100ea60048036038101906100e59190611514565b6105ec565b005b610106600480360381019061010191906115fd565b610768565b604051610117959493929190611639565b60405180910390f35b61013a6004803603810190610135919061133c565b610835565b005b610156600480360381019061015191906115fd565b610afe565b60405161016795949392919061169b565b60405180910390f35b61018a600480360381019061018591906116ee565b610b41565b60405161019a9493929190611936565b60405180910390f35b6101bd60048036038101906101b89190611514565b610ef7565b005b6101d960048036038101906101d49190611997565b6110fe565b005b60008060003373ffffffffffffffffffffffffffffffffffffffff1673ffffffffffffffffffffffffffffffffffffffff168152602001908152602001600020905060008160040160405161022f90611a4a565b9081526020016040518091039020600101548260040160405161025190611a4a565b90815260200160405180910390206000015461026d9190611a8e565b905060008260040160405161028190611b0e565b908152602001604051809103902060010154836004016040516102a390611b0e565b9081526020016040518091039020600001546102bf9190611a8e565b90506000836004016040516102d390611b6f565b908152602001604051809103902060010154846004016040516102f590611b6f565b9081526020016040518091039020600001546103119190611a8e565b905060008183856103229190611b84565b61032c9190611b84565b905085811015610371576040517f08c379a000000000000000000000000000000000000000000000000000000000815260040161036890611c3b565b60405180910390fd5b61037b8587611237565b60008560040160405161038d90611b6f565b908152602001604051809103902060000154866004016040516103af90611b0e565b908152602001604051809103902060000154876004016040516103d190611a4a565b9081526020016040518091039020600001546103ed9190611b84565b6103f79190611b84565b9050600081888860040160405161040d90611a4a565b9081526020016040518091039020600001546104299190611c5b565b6104339190611ccc565b9050600082898960040160405161044990611b0e565b9081526020016040518091039020600001546104659190611c5b565b61046f9190611ccc565b90506000818361047f9190611b84565b8a61048a9190611a8e565b9050828960040160405161049d90611a4a565b908152602001604051809103902060010160008282546104bd9190611b84565b9250508190555081896004016040516104d590611b0e565b908152602001604051809103902060010160008282546104f59190611b84565b92505081905550808960040160405161050d90611b6f565b9081526020016040518091039020600101600082825461052d9190611b84565b925050819055503373ffffffffffffffffffffffffffffffffffffffff167f13657dea4779547e9c75d813b2cc70322cd3808cd575dd2381c52bb5e932643e8b4260405161057c929190611d6f565b60405180910390a250505050505050505050565b806000803373ffffffffffffffffffffffffffffffffffffffff1673ffffffffffffffffffffffffffffffffffffffff16815260200190815260200160002060060160006101000a81548160ff02191690831515021790555050565b60008060003373ffffffffffffffffffffffffffffffffffffffff1673ffffffffffffffffffffffffffffffffffffffff1681526020019081526020016000209050600081600401856040516106429190611def565b90815260200160405180910390209050600081600201856040516106669190611def565b90815260200160405180910390209050838160020154826001015461068b9190611a8e565b10156106cc576040517f08c379a00000000000000000000000000000000000000000000000000000000081526004016106c390611e52565b60405180910390fd5b6106d68385611237565b838160020160008282546106ea9190611b84565b92505081905550838260010160008282546107059190611b84565b925050819055503373ffffffffffffffffffffffffffffffffffffffff167f13657dea4779547e9c75d813b2cc70322cd3808cd575dd2381c52bb5e932643e878787426040516107589493929190611eab565b60405180910390a2505050505050565b6000806000806000806000808873ffffffffffffffffffffffffffffffffffffffff1673ffffffffffffffffffffffffffffffffffffffff168152602001908152602001600020905080600001548160010154826004016040516107cb90611a4a565b908152602001604051809103902060000154836004016040516107ed90611b0e565b9081526020016040518091039020600001548460040160405161080f90611b6f565b908152602001604051809103902060000154955095509550955095505091939590929450565b60008111610878576040517f08c379a000000000000000000000000000000000000000000000000000000000815260040161086f90611f4a565b60405180910390fd5b60008060003373ffffffffffffffffffffffffffffffffffffffff1673ffffffffffffffffffffffffffffffffffffffff1681526020019081526020016000209050818160000181905550601e826108d09190611ccc565b816001018190555060018160060160006101000a81548160ff021916908315150217905550600060646032846109069190611c5b565b6109109190611ccc565b905060006064601e856109239190611c5b565b61092d9190611ccc565b90506000818361093d9190611b84565b856109489190611a8e565b9050828460040160405161095b90611a4a565b908152602001604051809103902060000181905550818460040160405161098190611b0e565b90815260200160405180910390206000018190555080846004016040516109a790611b6f565b9081526020016040518091039020600001819055508360050180600181540180825580915050600190039060005260206000200160006040518060400160405280600581526020017f4e6565647300000000000000000000000000000000000000000000000000000081525090919091509081610a249190612176565b508360050180600181540180825580915050600190039060005260206000200160006040518060400160405280600581526020017f57616e747300000000000000000000000000000000000000000000000000000081525090919091509081610a8d9190612176565b508360050180600181540180825580915050600190039060005260206000200160006040518060400160405280600781526020017f536176696e67730000000000000000000000000000000000000000000000000081525090919091509081610af69190612176565b505050505050565b60006020528060005260406000206000915090508060000154908060010154908060020154908060030154908060060160009054906101000a900460ff16905085565b60608060608060008060003373ffffffffffffffffffffffffffffffffffffffff1673ffffffffffffffffffffffffffffffffffffffff16815260200190815260200160002060040186604051610b989190611def565b908152602001604051809103902090506000816003018054905090508067ffffffffffffffff811115610bce57610bcd6113e9565b5b604051908082528060200260200182016040528015610c0157816020015b6060815260200190600190039081610bec5790505b5095508067ffffffffffffffff811115610c1e57610c1d6113e9565b5b604051908082528060200260200182016040528015610c4c5781602001602082028036833780820191505090505b5094508067ffffffffffffffff811115610c6957610c686113e9565b5b604051908082528060200260200182016040528015610c975781602001602082028036833780820191505090505b5093508067ffffffffffffffff811115610cb457610cb36113e9565b5b604051908082528060200260200182016040528015610ce25781602001602082028036833780820191505090505b50925060005b81811015610eed576000836003018281548110610d0857610d07612248565b5b906000526020600020018054610d1d90611f99565b80601f0160208091040260200160405190810160405280929190818152602001828054610d4990611f99565b8015610d965780601f10610d6b57610100808354040283529160200191610d96565b820191906000526020600020905b815481529060010190602001808311610d7957829003601f168201915b5050505050905060008460020182604051610db19190611def565b90815260200160405180910390209050806000018054610dd090611f99565b80601f0160208091040260200160405190810160405280929190818152602001828054610dfc90611f99565b8015610e495780601f10610e1e57610100808354040283529160200191610e49565b820191906000526020600020905b815481529060010190602001808311610e2c57829003601f168201915b5050505050898481518110610e6157610e60612248565b5b60200260200101819052508060010154888481518110610e8457610e83612248565b5b6020026020010181815250508060030154878481518110610ea857610ea7612248565b5b6020026020010181815250508060020154868481518110610ecc57610ecb612248565b5b60200260200101818152505050508080610ee590612277565b915050610ce8565b5050509193509193565b6000835111610f3b576040517f08c379a0000000000000000000000000000000000000000000000000000000008152600401610f329061230b565b60405180910390fd5b6000825111610f7f576040517f08c379a0000000000000000000000000000000000000000000000000000000008152600401610f7690612377565b60405180910390fd5b60008060003373ffffffffffffffffffffffffffffffffffffffff1673ffffffffffffffffffffffffffffffffffffffff16815260200190815260200160002060040184604051610fd09190611def565b908152602001604051809103902090508181600001541015611027576040517f08c379a000000000000000000000000000000000000000000000000000000000815260040161101e906123e3565b60405180910390fd5b6000816000015460648461103b9190611c5b565b6110459190611ccc565b905060405180608001604052808581526020018481526020016000815260200182815250826002018560405161107b9190611def565b9081526020016040518091039020600082015181600001908161109e9190612176565b5060208201518160010155604082015181600201556060820151816003015590505081600301849080600181540180825580915050600190039060005260206000200160009091909190915090816110f69190612176565b505050505050565b60008060003373ffffffffffffffffffffffffffffffffffffffff1673ffffffffffffffffffffffffffffffffffffffff1681526020019081526020016000209050600081600401846040516111549190611def565b9081526020016040518091039020905082816001015482600001546111799190611a8e565b10156111ba576040517f08c379a00000000000000000000000000000000000000000000000000000000081526004016111b19061244f565b60405180910390fd5b6111c48284611237565b828160010160008282546111d89190611b84565b925050819055503373ffffffffffffffffffffffffffffffffffffffff167f13657dea4779547e9c75d813b2cc70322cd3808cd575dd2381c52bb5e932643e8585426040516112299392919061246f565b60405180910390a250505050565b8160060160009054906101000a900460ff16156112d3576201518082600301546112619190611b84565b42111561127c57600082600201819055504282600301819055505b81600101548183600201546112919190611b84565b11156112d2576040517f08c379a00000000000000000000000000000000000000000000000000000000081526004016112c99061250c565b60405180910390fd5b5b808260020160008282546112e79190611b84565b925050819055505050565b6000604051905090565b600080fd5b600080fd5b6000819050919050565b61131981611306565b811461132457600080fd5b50565b60008135905061133681611310565b92915050565b600060208284031215611352576113516112fc565b5b600061136084828501611327565b91505092915050565b60008115159050919050565b61137e81611369565b811461138957600080fd5b50565b60008135905061139b81611375565b92915050565b6000602082840312156113b7576113b66112fc565b5b60006113c58482850161138c565b91505092915050565b600080fd5b600080fd5b6000601f19601f8301169050919050565b7f4e487b7100000000000000000000000000000000000000000000000000000000600052604160045260246000fd5b611421826113d8565b810181811067ffffffffffffffff821117156114405761143f6113e9565b5b80604052505050565b60006114536112f2565b905061145f8282611418565b919050565b600067ffffffffffffffff82111561147f5761147e6113e9565b5b611488826113d8565b9050602081019050919050565b82818337600083830152505050565b60006114b76114b284611464565b611449565b9050828152602081018484840111156114d3576114d26113d3565b5b6114de848285611495565b509392505050565b600082601f8301126114fb576114fa6113ce565b5b813561150b8482602086016114a4565b91505092915050565b60008060006060848603121561152d5761152c6112fc565b5b600084013567ffffffffffffffff81111561154b5761154a611301565b5b611557868287016114e6565b935050602084013567ffffffffffffffff81111561157857611577611301565b5b611584868287016114e6565b925050604061159586828701611327565b9150509250925092565b600073ffffffffffffffffffffffffffffffffffffffff82169050919050565b60006115ca8261159f565b9050919050565b6115da816115bf565b81146115e557600080fd5b50565b6000813590506115f7816115d1565b92915050565b600060208284031215611613576116126112fc565b5b6000611621848285016115e8565b91505092915050565b61163381611306565b82525050565b600060a08201905061164e600083018861162a565b61165b602083018761162a565b611668604083018661162a565b611675606083018561162a565b611682608083018461162a565b9695505050505050565b61169581611369565b82525050565b600060a0820190506116b0600083018861162a565b6116bd602083018761162a565b6116ca604083018661162a565b6116d7606083018561162a565b6116e4608083018461168c565b9695505050505050565b600060208284031215611704576117036112fc565b5b600082013567ffffffffffffffff81111561172257611721611301565b5b61172e848285016114e6565b91505092915050565b600081519050919050565b600082825260208201905092915050565b6000819050602082019050919050565b600081519050919050565b600082825260208201905092915050565b60005b8381101561179d578082015181840152602081019050611782565b60008484015250505050565b60006117b482611763565b6117be818561176e565b93506117ce81856020860161177f565b6117d7816113d8565b840191505092915050565b60006117ee83836117a9565b905092915050565b6000602082019050919050565b600061180e82611737565b6118188185611742565b93508360208202850161182a85611753565b8060005b85811015611866578484038952815161184785826117e2565b9450611852836117f6565b925060208a0199505060018101905061182e565b50829750879550505050505092915050565b600081519050919050565b600082825260208201905092915050565b6000819050602082019050919050565b6118ad81611306565b82525050565b60006118bf83836118a4565b60208301905092915050565b6000602082019050919050565b60006118e382611878565b6118ed8185611883565b93506118f883611894565b8060005b8381101561192957815161191088826118b3565b975061191b836118cb565b9250506001810190506118fc565b5085935050505092915050565b600060808201905081810360008301526119508187611803565b9050818103602083015261196481866118d8565b9050818103604083015261197881856118d8565b9050818103606083015261198c81846118d8565b905095945050505050565b600080604083850312156119ae576119ad6112fc565b5b600083013567ffffffffffffffff8111156119cc576119cb611301565b5b6119d8858286016114e6565b92505060206119e985828601611327565b9150509250929050565b600081905092915050565b7f4e65656473000000000000000000000000000000000000000000000000000000600082015250565b6000611a346005836119f3565b9150611a3f826119fe565b600582019050919050565b6000611a5582611a27565b9150819050919050565b7f4e487b7100000000000000000000000000000000000000000000000000000000600052601160045260246000fd5b6000611a9982611306565b9150611aa483611306565b9250828203905081811115611abc57611abb611a5f565b5b92915050565b7f57616e7473000000000000000000000000000000000000000000000000000000600082015250565b6000611af86005836119f3565b9150611b0382611ac2565b600582019050919050565b6000611b1982611aeb565b9150819050919050565b7f536176696e677300000000000000000000000000000000000000000000000000600082015250565b6000611b596007836119f3565b9150611b6482611b23565b600782019050919050565b6000611b7a82611b4c565b9150819050919050565b6000611b8f82611306565b9150611b9a83611306565b9250828201905080821115611bb257611bb1611a5f565b5b92915050565b600082825260208201905092915050565b7f496e73756666696369656e742066756e647320696e20746f74616c206275646760008201527f6574000000000000000000000000000000000000000000000000000000000000602082015250565b6000611c25602283611bb8565b9150611c3082611bc9565b604082019050919050565b60006020820190508181036000830152611c5481611c18565b9050919050565b6000611c6682611306565b9150611c7183611306565b9250828202611c7f81611306565b91508282048414831517611c9657611c95611a5f565b5b5092915050565b7f4e487b7100000000000000000000000000000000000000000000000000000000600052601260045260246000fd5b6000611cd782611306565b9150611ce283611306565b925082611cf257611cf1611c9d565b5b828204905092915050565b7f47656e6572616c00000000000000000000000000000000000000000000000000600082015250565b6000611d33600783611bb8565b9150611d3e82611cfd565b602082019050919050565b50565b6000611d59600083611bb8565b9150611d6482611d49565b600082019050919050565b60006080820190508181036000830152611d8881611d26565b90508181036020830152611d9b81611d4c565b9050611daa604083018561162a565b611db7606083018461162a565b9392505050565b6000611dc982611763565b611dd381856119f3565b9350611de381856020860161177f565b80840191505092915050565b6000611dfb8284611dbe565b915081905092915050565b7f496e73756666696369656e74207375622d6469766973696f6e2066756e647300600082015250565b6000611e3c601f83611bb8565b9150611e4782611e06565b602082019050919050565b60006020820190508181036000830152611e6b81611e2f565b9050919050565b6000611e7d82611763565b611e878185611bb8565b9350611e9781856020860161177f565b611ea0816113d8565b840191505092915050565b60006080820190508181036000830152611ec58187611e72565b90508181036020830152611ed98186611e72565b9050611ee8604083018561162a565b611ef5606083018461162a565b95945050505050565b7f496e636f6d65206d7573742062652067726561746572207468616e207a65726f600082015250565b6000611f34602083611bb8565b9150611f3f82611efe565b602082019050919050565b60006020820190508181036000830152611f6381611f27565b9050919050565b7f4e487b7100000000000000000000000000000000000000000000000000000000600052602260045260246000fd5b60006002820490506001821680611fb157607f821691505b602082108103611fc457611fc3611f6a565b5b50919050565b60008190508160005260206000209050919050565b60006020601f8301049050919050565b600082821b905092915050565b60006008830261202c7fffffffffffffffffffffffffffffffffffffffffffffffffffffffffffffffff82611fef565b6120368683611fef565b95508019841693508086168417925050509392505050565b6000819050919050565b600061207361206e61206984611306565b61204e565b611306565b9050919050565b6000819050919050565b61208d83612058565b6120a16120998261207a565b848454611ffc565b825550505050565b600090565b6120b66120a9565b6120c1818484612084565b505050565b5b818110156120e5576120da6000826120ae565b6001810190506120c7565b5050565b601f82111561212a576120fb81611fca565b61210484611fdf565b81016020851015612113578190505b61212761211f85611fdf565b8301826120c6565b50505b505050565b600082821c905092915050565b600061214d6000198460080261212f565b1980831691505092915050565b6000612166838361213c565b9150826002028217905092915050565b61217f82611763565b67ffffffffffffffff811115612198576121976113e9565b5b6121a28254611f99565b6121ad8282856120e9565b600060209050601f8311600181146121e057600084156121ce578287015190505b6121d8858261215a565b865550612240565b601f1984166121ee86611fca565b60005b82811015612216578489015182556001820191506020850194506020810190506121f1565b86831015612233578489015161222f601f89168261213c565b8355505b6001600288020188555050505b505050505050565b7f4e487b7100000000000000000000000000000000000000000000000000000000600052603260045260246000fd5b600061228282611306565b91507fffffffffffffffffffffffffffffffffffffffffffffffffffffffffffffffff82036122b4576122b3611a5f565b5b600182019050919050565b7f4d697373696e672063617465676f727900000000000000000000000000000000600082015250565b60006122f5601083611bb8565b9150612300826122bf565b602082019050919050565b60006020820190508181036000830152612324816122e8565b9050919050565b7f4d697373696e67207375622d6469766973696f6e206e616d6500000000000000600082015250565b6000612361601983611bb8565b915061236c8261232b565b602082019050919050565b6000602082019050818103600083015261239081612354565b9050919050565b7f416d6f756e7420657863656564732063617465676f7279206275646765740000600082015250565b60006123cd601e83611bb8565b91506123d882612397565b602082019050919050565b600060208201905081810360008301526123fc816123c0565b9050919050565b7f496e73756666696369656e742063617465676f72792066756e64730000000000600082015250565b6000612439601b83611bb8565b915061244482612403565b602082019050919050565b600060208201905081810360008301526124688161242c565b9050919050565b600060808201905081810360008301526124898186611e72565b9050818103602083015261249c81611d4c565b90506124ab604083018561162a565b6124b8606083018461162a565b949350505050565b7f4461696c79206c696d6974206578636565646564000000000000000000000000600082015250565b60006124f6601483611bb8565b9150612501826124c0565b602082019050919050565b60006020820190508181036000830152612525816124e9565b905091905056fea2646970667358221220ba98d321144240dbdd8e0d0937e8d80c6494c0ff906985bdafc286339ad4557d64736f6c63430008120033",
  "linkReferences": {},
  "deployedLinkReferences": {}
}