{
  "_format": "hh-sol-artifact-1",
  "contractName": "WealthTransfer",
  "sourceName": "contracts/WealthTransfer.sol",
  "abi": [
    {
      "inputs": [
        {
          "internalType": "address",
          "name": "_budgetContract",
          "type": "address"
        }
      ],
      "stateMutability": "nonpayable",
      "type": "constructor"
    },
    {
      "anonymous": false,
      "inputs": [
        {
          "indexed": true,
          "internalType": "address",
          "name": "from",
          "type": "address"
        },
        {
          "indexed": true,
          "internalType": "address",
          "name": "to",
          "type": "address"
        },
        {
          "indexed": false,
          "internalType": "uint256",
          "name": "amount",
          "type": "uint256"
        }
      ],
      "name": "EmergencyTransfer",
      "type": "event"
    },
    {
      "anonymous": false,
      "inputs": [
        {
          "indexed": true,
          "internalType": "address",
          "name": "from",
          "type": "address"
        },
        {
          "indexed": true,
          "internalType": "address",
          "name": "to",
          "type": "address"
        },
        {
          "indexed": false,
          "internalType": "uint256",
          "name": "amount",
          "type": "uint256"
        },
        {
          "indexed": false,
          "internalType": "string",
          "name": "category",
          "type": "string"
        }
      ],
      "name": "TransferExecuted",
      "type": "event"
    },
    {
      "inputs": [],
      "name": "budgetContract",
      "outputs": [
        {
          "internalType": "contract IBudgetAllocation",
          "name": "",
          "type": "address"
        }
      ],
      "stateMutability": "view",
      "type": "function"
    },
    {
      "inputs": [
        {
          "internalType": "address payable",
          "name": "recipient",
          "type": "address"
        },
        {
          "internalType": "uint256",
          "name": "amount",
          "type": "uint256"
        }
      ],
      "name": "emergencyTransfer",
      "outputs": [],
      "stateMutability": "payable",
      "type": "function"
    },
    {
      "inputs": [
        {
          "internalType": "address",
          "name": "",
          "type": "address"
        }
      ],
      "name": "totalSent",
      "outputs": [
        {
          "internalType": "uint256",
          "name": "",
          "type": "uint256"
        }
      ],
      "stateMutability": "view",
      "type": "function"
    },
    {
      "inputs": [
        {
          "internalType": "address payable",
          "name": "recipient",
          "type": "address"
        },
        {
          "internalType": "uint256",
          "name": "amount",
          "type": "uint256"
        },
        {
          "internalType": "string",
          "name": "category",
          "type": "string"
        }
      ],
      "name": "transferTo",
      "outputs": [],
      "stateMutability": "payable",
      "type": "function"
    },
    {
      "stateMutability": "payable",
      "type": "receive"
    }
  ],
  "bytecode": "0x60806040523480156200001157600080fd5b5060405162001263380380620012638339818101604052810190620000379190620000e8565b806000806101000a81548173ffffffffffffffffffffffffffffffffffffffff021916908373ffffffffffffffffffffffffffffffffffffffff160217905550506200011a565b600080fd5b600073ffffffffffffffffffffffffffffffffffffffff82169050919050565b6000620000b08262000083565b9050919050565b620000c281620000a3565b8114620000ce57600080fd5b50565b600081519050620000e281620000b7565b92915050565b6000602082840312156200010157620001006200007e565b5b60006200011184828501620000d1565b91505092915050565b611139806200012a6000396000f3fe6080604052600436106100435760003560e01c806308f81a931461004f578063556181951461008c578063745f64d7146100a8578063dbf0f3e2146100d35761004a565b3661004a57005b600080fd5b34801561005b57600080fd5b5061007660048036038101906100719190610854565b6100ef565b604051610083919061089a565b60405180910390f35b6100a660048036038101906100a19190610a65565b610107565b005b3480156100b457600080fd5b506100bd6105a0565b6040516100ca9190610b33565b60405180910390f35b6100ed60048036038101906100e89190610b4e565b6105c4565b005b60016020528060005260406000206000915090505481565b808260008060009054906101000a900473ffffffffffffffffffffffffffffffffffffffff1673ffffffffffffffffffffffffffffffffffffffff16637fa54d6e336040518263ffffffff1660e01b81526004016101659190610b9d565b60c060405180830381865afa158015610182573d6000803e3d6000fd5b505050506040513d601f19601f820116820180604052508101906101a69190610caa565b90506040518060400160405280600581526020017f6e656564730000000000000000000000000000000000000000000000000000008152508051906020012083805190602001200361023e578060200151821115610239576040517f08c379a000000000000000000000000000000000000000000000000000000000815260040161023090610d34565b60405180910390fd5b6103a7565b6040518060400160405280600581526020017f77616e7473000000000000000000000000000000000000000000000000000000815250805190602001208380519060200120036102d45780604001518211156102cf576040517f08c379a00000000000000000000000000000000000000000000000000000000081526004016102c690610da0565b60405180910390fd5b6103a6565b6040518060400160405280600781526020017f736176696e6773000000000000000000000000000000000000000000000000008152508051906020012083805190602001200361036a578060600151821115610365576040517f08c379a000000000000000000000000000000000000000000000000000000000815260040161035c90610e0c565b60405180910390fd5b6103a5565b6040517f08c379a000000000000000000000000000000000000000000000000000000000815260040161039c90610e78565b60405180910390fd5b5b5b60008060009054906101000a900473ffffffffffffffffffffffffffffffffffffffff1673ffffffffffffffffffffffffffffffffffffffff16637fa54d6e336040518263ffffffff1660e01b81526004016104039190610b9d565b60c060405180830381865afa158015610420573d6000803e3d6000fd5b505050506040513d601f19601f820116820180604052508101906104449190610caa565b90508060a001511561049357853414610492576040517f08c379a000000000000000000000000000000000000000000000000000000000815260040161048990610ee4565b60405180910390fd5b5b85600160003373ffffffffffffffffffffffffffffffffffffffff1673ffffffffffffffffffffffffffffffffffffffff16815260200190815260200160002060008282546104e29190610f33565b925050819055508673ffffffffffffffffffffffffffffffffffffffff166108fc879081150290604051600060405180830381858888f1935050505015801561052f573d6000803e3d6000fd5b508673ffffffffffffffffffffffffffffffffffffffff163373ffffffffffffffffffffffffffffffffffffffff167f20404a7fcef99c1ce456f7054c0f458a8645a82241eb36feab02658a4a8f359b888860405161058f929190610fd5565b60405180910390a350505050505050565b60008054906101000a900473ffffffffffffffffffffffffffffffffffffffff1681565b60008060009054906101000a900473ffffffffffffffffffffffffffffffffffffffff1673ffffffffffffffffffffffffffffffffffffffff16637fa54d6e336040518263ffffffff1660e01b81526004016106209190610b9d565b60c060405180830381865afa15801561063d573d6000803e3d6000fd5b505050506040513d601f19601f820116820180604052508101906106619190610caa565b90508060a00151156106a8576040517f08c379a000000000000000000000000000000000000000000000000000000000815260040161069f90611077565b60405180910390fd5b80608001518211156106ef576040517f08c379a00000000000000000000000000000000000000000000000000000000081526004016106e6906110e3565b60405180910390fd5b813414610731576040517f08c379a000000000000000000000000000000000000000000000000000000000815260040161072890610ee4565b60405180910390fd5b8273ffffffffffffffffffffffffffffffffffffffff166108fc839081150290604051600060405180830381858888f19350505050158015610777573d6000803e3d6000fd5b508273ffffffffffffffffffffffffffffffffffffffff163373ffffffffffffffffffffffffffffffffffffffff167fe73b77795c13bee9883a40de3973381a54190f3bc777dcab3a8206d302afc784846040516107d5919061089a565b60405180910390a3505050565b6000604051905090565b600080fd5b600080fd5b600073ffffffffffffffffffffffffffffffffffffffff82169050919050565b6000610821826107f6565b9050919050565b61083181610816565b811461083c57600080fd5b50565b60008135905061084e81610828565b92915050565b60006020828403121561086a576108696107ec565b5b60006108788482850161083f565b91505092915050565b6000819050919050565b61089481610881565b82525050565b60006020820190506108af600083018461088b565b92915050565b60006108c0826107f6565b9050919050565b6108d0816108b5565b81146108db57600080fd5b50565b6000813590506108ed816108c7565b92915050565b6108fc81610881565b811461090757600080fd5b50565b600081359050610919816108f3565b92915050565b600080fd5b600080fd5b6000601f19601f8301169050919050565b7f4e487b7100000000000000000000000000000000000000000000000000000000600052604160045260246000fd5b61097282610929565b810181811067ffffffffffffffff821117156109915761099061093a565b5b80604052505050565b60006109a46107e2565b90506109b08282610969565b919050565b600067ffffffffffffffff8211156109d0576109cf61093a565b5b6109d982610929565b9050602081019050919050565b82818337600083830152505050565b6000610a08610a03846109b5565b61099a565b905082815260208101848484011115610a2457610a23610924565b5b610a2f8482856109e6565b509392505050565b600082601f830112610a4c57610a4b61091f565b5b8135610a5c8482602086016109f5565b91505092915050565b600080600060608486031215610a7e57610a7d6107ec565b5b6000610a8c868287016108de565b9350506020610a9d8682870161090a565b925050604084013567ffffffffffffffff811115610abe57610abd6107f1565b5b610aca86828701610a37565b9150509250925092565b6000819050919050565b6000610af9610af4610aef846107f6565b610ad4565b6107f6565b9050919050565b6000610b0b82610ade565b9050919050565b6000610b1d82610b00565b9050919050565b610b2d81610b12565b82525050565b6000602082019050610b486000830184610b24565b92915050565b60008060408385031215610b6557610b646107ec565b5b6000610b73858286016108de565b9250506020610b848582860161090a565b9150509250929050565b610b9781610816565b82525050565b6000602082019050610bb26000830184610b8e565b92915050565b600080fd5b600081519050610bcc816108f3565b92915050565b60008115159050919050565b610be781610bd2565b8114610bf257600080fd5b50565b600081519050610c0481610bde565b92915050565b600060c08284031215610c2057610c1f610bb8565b5b610c2a60c061099a565b90506000610c3a84828501610bbd565b6000830152506020610c4e84828501610bbd565b6020830152506040610c6284828501610bbd565b6040830152506060610c7684828501610bbd565b6060830152506080610c8a84828501610bbd565b60808301525060a0610c9e84828501610bf5565b60a08301525092915050565b600060c08284031215610cc057610cbf6107ec565b5b6000610cce84828501610c0a565b91505092915050565b600082825260208201905092915050565b7f45786365656473206e6565647320627564676574000000000000000000000000600082015250565b6000610d1e601483610cd7565b9150610d2982610ce8565b602082019050919050565b60006020820190508181036000830152610d4d81610d11565b9050919050565b7f457863656564732077616e747320627564676574000000000000000000000000600082015250565b6000610d8a601483610cd7565b9150610d9582610d54565b602082019050919050565b60006020820190508181036000830152610db981610d7d565b9050919050565b7f4578636565647320736176696e67732062756467657400000000000000000000600082015250565b6000610df6601683610cd7565b9150610e0182610dc0565b602082019050919050565b60006020820190508181036000830152610e2581610de9565b9050919050565b7f496e76616c69642063617465676f727900000000000000000000000000000000600082015250565b6000610e62601083610cd7565b9150610e6d82610e2c565b602082019050919050565b60006020820190508181036000830152610e9181610e55565b9050919050565b7f496e73756666696369656e74204554482073656e740000000000000000000000600082015250565b6000610ece601583610cd7565b9150610ed982610e98565b602082019050919050565b60006020820190508181036000830152610efd81610ec1565b9050919050565b7f4e487b7100000000000000000000000000000000000000000000000000000000600052601160045260246000fd5b6000610f3e82610881565b9150610f4983610881565b9250828201905080821115610f6157610f60610f04565b5b92915050565b600081519050919050565b60005b83811015610f90578082015181840152602081019050610f75565b60008484015250505050565b6000610fa782610f67565b610fb18185610cd7565b9350610fc1818560208601610f72565b610fca81610929565b840191505092915050565b6000604082019050610fea600083018561088b565b8181036020830152610ffc8184610f9c565b90509392505050565b7f537472696374206d6f646520616374697665202d2063616e6e6f74207065726660008201527f6f726d20656d657267656e6379207472616e7366657200000000000000000000602082015250565b6000611061603683610cd7565b915061106c82611005565b604082019050919050565b6000602082019050818103600083015261109081611054565b9050919050565b7f4578636565647320656d657267656e63792066756e6400000000000000000000600082015250565b60006110cd601683610cd7565b91506110d882611097565b602082019050919050565b600060208201905081810360008301526110fc816110c0565b905091905056fea2646970667358221220e7631535dd6bc853e70ee6fa3a1f7f33aac71b12aa0540c3cc93783a51d2ef6264736f6c63430008120033",
  "linkReferences": {},
  "deployedLinkReferences": {}
}